:020000040800F2
:10000000A80600208901000891010008930100085A
:100010009501000897010008990100080000000000
:100020000000000000000000000000009B0100082C
:100030009D010008000000009F010008A1010008C8
:10004000A3010008A3010008A3010008A301000800
:10005000A3010008A3010008A3010008A3010008F0
:10006000A3010008A3010008A3010008A3010008E0
:10007000A3010008A3010008A3010008A3010008D0
:10008000A3010008A3010008A3010008A3010008C0
:10009000A3010008A3010008A3010008A3010008B0
:1000A000A3010008A3010008A3010008A3010008A0
:1000B000C1080008A3010008A3010008A30100086B
:1000C000A3010008A3010008A3010008A301000880
:1000D000A3010008A3010008A3010008A301000870
:1000E000A3010008A3010008A301000800F002F822
:1000F00000F03AF80AA090E8000C82448344AAF188
:100100000107DA4501D100F02FF8AFF2090EBAE885
:100110000F0013F0010F18BFFB1A43F0010318473B
:100120007415000094150000103A24BF78C878C1F7
:10013000FAD8520724BF30C830C144BF04680C60ED
:10014000704700000023002400250026103A28BF35
:1001500078C1FBD8520728BF30C148BF0B60704739
:100160001FB51FBD10B510BD00F031F81146FFF7E7
:10017000F7FF00F04BFC00F04FF803B4FFF7F2FF7D
:1001800003BC00F057F800000948804709480047C1
:10019000FEE7FEE7FEE7FEE7FEE7FEE7FEE7FEE737
:1001A000FEE7FEE704480549054A064B7047000094
:1001B00061080008ED000008A8000020A806002043
:1001C000A8020020A80200207047704770477546BB
:1001D00000F02CF8AE4605006946534620F00700B3
:1001E000854618B020B5FFF7DDFFBDE820404FF091
:1001F00000064FF000074FF000084FF0000B21F011
:100200000701AC46ACE8C009ACE8C009ACE8C009DD
:10021000ACE8C0098D46704710B50446AFF30080C6
:100220002046BDE81040FFF7A8BF00000048704717
:100230004400002001491820ABBEFEE72600020062
:10024000704721B1826842F00102826003E0826857
:1002500022F001028260704700B585B00020009056
:1002600001208DF805004FF46020029000208DF8E9
:100270000400039001208DF810006946094800F041
:1002800017F8072301220021064800F039F8012160
:100290000448FFF7D6FF0121024800F08DF805B0B1
:1002A00000BD0000002801400146C86C80B27047C4
:1002B00030B502460020002350680F4C20400D79D5
:1002C0000C6844EA05242043506090680B4C2040A1
:1002D000D1E902542C434D7944EA4504204390600F
:1002E000D06A20F470000C7C641EE4B2234340EA20
:1002F0000350D06230BD0000FFFEF0FFFDF7F1FFBC
:10030000F0B504460D4600200021092D11DDE068FE
:10031000A5F10A0606EB4607072606FA07F1884309
:10032000A5F10A0606EB460603FA06F10843E0606B
:100330000CE0206905EB4507072606FA07F188431C
:1003400005EB450603FA06F108432061072A0FDA98
:10035000606B561E06EB86071F2606FA07F18843D8
:10036000561E06EB860605FA06F10843606322E096
:100370000D2A0FDA206BD61F06EB86071F2606FA1A
:1003800007F18843D61F06EB860605FA06F10843F7
:10039000206310E0E06AA2F10D0606EB86071F2637
:1003A00006FA07F18843A2F10D0606EB860605FA68
:1003B00006F10843E062F0BD21B1826842F4A00278
:1003C000826003E0826822F4A0028260704700002D
:1003D0001CB50120ADF8040000208DF807000320B3
:1003E0008DF8060001A9094800F014F84FF46040A8
:1003F000ADF8000018208DF8030003208DF80200EE
:100400006946034800F006F81CBD000000080140E2
:10041000000C01402DE9F041024600250026002095
:1004200000230024002791F803C00CF00F0591F879
:1004300003C00CF0100CBCF1000F03D091F802C007
:100440004CEA050591F800C0BCF1000F31D01468EA
:1004500000202BE04FF0010C0CFA00F3B1F800C0C3
:100460000CEA03069E4220D183004FF00F0C0CFAD9
:1004700003F7BC4305FA03FC4CEA040491F803C0FB
:10048000BCF1280F06D14FF0010C0CFA00FCC2F8A9
:1004900014C00AE091F803C0BCF1480F05D14FF039
:1004A000010C0CFA00FCC2F810C0401C0828D1D383
:1004B0001460B1F800C0BCF1FF0F34DD54680020B7
:1004C0002EE000F1080C4FF0010808FA0CF3B1F827
:1004D00000C00CEA03069E4221D183004FF00F0CAE
:1004E0000CFA03F7BC4305FA03FC4CEA040491F848
:1004F00003C0BCF1280F05D100F1080C08FA0CF874
:10050000C2F8148091F803C0BCF1480F07D100F184
:10051000080C4FF0010808FA0CF8C2F81080401CD3
:100520000828CED35460BDE8F08108B54FF4E060F0
:1005300000F048F81C208DF8000000208DF8020023
:100540008DF8010001208DF80300684600F002F8E4
:1005500008BD000070B5002100230F22C47804B349
:10056000154C246804F4E064C4F5E064210AC1F188
:100570000403CA40447804FA03F184781440214308
:1005800009010E4C0678A155047804F01F050124DA
:10059000AC4005786D11AD0005F1E025C5F80041CE
:1005A00009E0047804F01F050124AC40044D0678EE
:1005B000761145F8264070BD0CED00E000E400E047
:1005C00080E100E002490143024A116070470000E7
:1005D0000000FA050CED00E029B1064AD269024399
:1005E000044BDA6104E0034AD2698243014BDA61C9
:1005F000704700000010024029B1064A9269024388
:10060000044B9A6104E0034A92698243014B9A6168
:10061000704700000010024010B5012140F20C406C
:10062000FFF7EAFF012144F20100FFF7D5FF10BDFB
:1006300021B1028842F04002028004E002884FF6B5
:10064000BF731A400280704710B511481149086005
:100650004FF482710F48C18000200E4988804FF40A
:1006600000610C48018118210182002141818181B2
:1006700041824FF40071C18101460868091D00F0F4
:1006800016F8044908680121FFF7D2FF10BD0000E9
:10069000003800402C0000200246002013890B4047
:1006A0000BB1012000E0002070478181704710B538
:1006B0000022028802F441520B884C8823438C8824
:1006C0002343CC8823430C8923434C8923438C89BF
:1006D0002343CC8923431A430280838B4FF2FF7458
:1006E000234083830B8A038210BD2DE9F041044629
:1006F0000E4615462089B0F5006F12D137460DE041
:1007000000BF02212068FFF7C7FF0028F9D0398811
:100710002068FFF7CAFFA81E85B2BF1C012DEFDCC1
:1007200012E037460DE000BF02212068FFF7B4FF5A
:100730000028F9D039782068FFF7B7FF681E85B226
:100740007F1C002DEFDC00BF00BF80212068FFF779
:10075000A3FF0128F9D0BDE8F08110B500F002F840
:1007600010BD00000CB500200190009033480068D7
:1007700040F480303149086000BF3048006800F420
:10078000003000900198401C0190009818B9019821
:10079000B0F5A06FF1D12948006800F4003010B125
:1007A0000120009001E0002000900098012843D132
:1007B0002348006840F0100021490860084600689E
:1007C00020F0070008600846006840F0020008605A
:1007D0001A48406819494860084640684860084619
:1007E000406840F4806048600846406820F47C100F
:1007F00048600846406840F4E810486008460068D1
:1008000040F08070086000BF0C48006800F0007085
:100810000028F9D00948406820F0030007494860E3
:100820000846406840F00200486000BF0348406846
:1008300000F00C000828F9D10CBD000000100240A7
:1008400000200240034B1860034B1960034B1A60F1
:100850007047000014000020180000201C00002039
:1008600010B51348006840F00100114908600846BF
:100870004068104908400E494860084600680E4923
:1008800008400B4908600846006820F48020086092
:100890000846406820F4FE0048604FF41F0088605E
:1008A000FFF75BFF4FF000600449086010BD0000D7
:1008B000001002400000FFF8FFFFF6FE08ED00E028
:1008C00010B50121880700F035F810B10120034967
:1008D00008700121880700F003F810BD1000002007
:1008E000CA430282704721B1028842F001020280AD
:1008F00004E002884FF6FE731A40028070470EB57E
:100900000020ADF80600ADF8020041F61F40ADF83A
:1009100000006420ADF804006946000700F024F8E8
:1009200001218807FFF7DFFF01221146900700F041
:1009300012F80EBD30B50246002000230024158AAF
:1009400005EA0103958905EA010413B10CB1012000
:1009500000E0002030BD1AB183890B43838102E09F
:1009600083898B4383817047002202881D4B984204
:100970000ED01D4B98420BD0B0F1804F08D01B4BCE
:10098000984205D01A4B984202D01A4B984204D193
:100990004FF68F731A404B881A43174B984207D073
:1009A000164B984204D04FF6FF431A40CB881A43A7
:1009B00002808B8883850B8803850A4B98420BD075
:1009C000094B984208D00E4B984205D00D4B9842E7
:1009D00002D00D4B984201D10B7A0386012383820A
:1009E00070470000002C014000340140000400402A
:1009F00000080040000C00400010004000140040BF
:100A0000004001400044014000480140FFF704FE5F
:100A1000FFF7DEFCFFF720FCFFF771FFFFF785FD16
:100A2000FFF712FE1148026811480168114800687A
:100A3000FFF708FF19E010480078B0B10F48FFF742
:100A400033FC0546284600F0CFFC064600F01CF8B3
:100A5000044600F0A9FC0A49088002220948FFF771
:100A600044FE00200449087000BFE4E70C000020A9
:100A70000800002004000020100000200028014091
:100A8000000000202C0000202DE9F14F84B03048F8
:100A900001683048006800F063FB044621462D4899
:100AA000006800F0BFFB2C4908602C4801680498DE
:100AB00000F07AFD054628480168284600F0A8FCA9
:100AC000044626480168204600F04AFB2449086095
:100AD0002448006800F018FB04460D4620480168D1
:100AE0001E48006800F060FD804600F00DFB21F01C
:100AF0000041064622462B4600F012F9CDE90201DC
:100B00001448006800F000FB04460D4612480068D7
:100B100000F0FAFA06460022134B00F0FFF9804677
:100B200022462B4600F0FCF8CDE90001DDE9022366
:100B300000F04EF8824600F019F8064908600848AF
:100B40000068064908600648006805B0BDE8F08FF7
:100B5000140000201800002028000020240000209D
:100B6000200000201C0000200000F03F21F0004287
:100B7000A2F16052B2F5801F01F0004328BFD2F10C
:100B80007F6C0BD95FEA001C43EAC20242EB507053
:100B900018BF704728BF20F001007047B2F5801FD2
:100BA000BCBF184670474FEA410C1CF5001F02D22B
:100BB000084600F0F4BC70B500F05CF90000008954
:100BC000FFF7F6BF4FF00040A0F58000704700002F
:100BD00010B591EA030F48BF83F0004300F1B281E2
:100BE000841A71EB030C05D2121943EB0C03001BA2
:100BF00061EB0C01DFF824E14FEA1154A4EB135C24
:100C00001EEA430F18BF9EEA445F73D023EA0E0327
:100C1000DCF1200E21EA045143F4801332D322FA8E
:100C20000CFE10EB0E0023FA0CFE41EB0E01CCF192
:100C3000200E03FA0EFE10EB0E0051F10001B1F58B
:100C4000801FCCF1200E32D201EB045112FA0EF2C9
:100C5000BDE8104058BF7047401C38BF5FEA4202F1
:100C600018BF7047002814BF20F0010041F10001B7
:100C70004FEA410313F5001F38BF7047A1F1C0418F
:100C800000F046B9012A43EB0302ACF1200CDCF181
:100C90001F0E32BF4FF0000E23FA0CF310EB0300CF
:100CA00041EB0451B4EB115FD0D0A1EB045101F53D
:100CB000801149085FEA300001EB04510ED350F176
:100CC000000038BF12FA0EFE08D1BDE81040C9E797
:100CD000401C38BF5FEA4202CAD1C3E7BDE81040FA
:100CE0004FEA410313F5001F38BF7047A1F1C0411F
:100CF00000F00EB99EEA445F08D011EA5E0FBDE82D
:100D0000104004BF01F0004100207047BDE81040D2
:100D100070B500F0AFF800BF64FBBE3E0000E0FF1E
:100D2000DFF848C170B51CEA111E1EBF1CEA13157E
:100D30009EEA0C0F95EA0C0F00F06F8081EA030425
:100D400023EA4C134EEAD47E21EA4C1141F480117F
:100D500043F48013AE44A1FB024CA0FB0365AEF14B
:100D60007F7E361955EB0C05A1FB034C4CF10003BB
:100D7000A0FB021C16EB0C06654153F1000309426F
:100D800018BF46F0010613F4007F0BD14FEA033180
:100D90004FEA0530340341EA155140EA16506FF02E
:100DA00003020AE04FEAC3214FEAC520F40241EAF8
:100DB000555140EA56506FF0020202EB2E4201EB11
:100DC000025585EACE710AD05FEA440C18BF24F0C0
:100DD000004450F1000041F1000120EAD47040F2DB
:100DE000FE7C624500D270BDA84214BF4FF0804423
:100DF0004FF04044002E08BF0024BEF1806FA8BF12
:100E0000A1F1C041BDE8704080F282804FF0000047
:100E100001F1C04101F0004170479EEA0C0F0CEA5D
:100E2000131518BF95EA0C0F06D04FF0000081EAA9
:100E3000030E0EF0004170BD00F01CF88900013E69
:100E400000F007B800F009B84FEA430C5FEA5C5CB9
:100E500008D081EA030100F05BB84FEA410C5FEA79
:100E60005C5CF6D14FF00000014970470000FF07BD
:100E70000000F87F0EF1020E2EF0030E5EF8046BF8
:100E8000364205D4012A43EB030515F5001F12D89D
:100E9000012841EB010C1CF5001F0CD80ED14FEAC4
:100EA000D17C15F5001F0CEB4C0C0CF1020C08BFAB
:100EB0004CEBD37C04E04FF0080C01E04FEAD37C0C
:100EC0000CEB4C0526FA05F606F00706B6F1040C05
:100ED00006D20EEB860CBDE870404CF0010C60476A
:100EE000DFE80CF0090B02024FF000414FF0000068
:100EF000A1F5002170BD19461046012851EB0104EF
:100F000018BFD4F5001484BF002001F0004170BD6B
:100F10000808A0F500114FEA3101704791EA030F6C
:100F200010B581F000413FF55BAE83F0004300F067
:100F300009B8000010B591EA030F48BF83F00043E1
:100F40003FF54EAE841A71EB030C07D212198CF0E8
:100F5000004C43EB0C03001B61EB0C01DFF8A4E138
:100F60004FEA1154A4EB135C1EEA430F18BF9EEA2C
:100F7000445F00F0B08023EA6E03524221EA04513C
:100F8000C3EB6E0338BF5B1EDCF1200E25D322FAC3
:100F90000CFE10EB0E0043FA0CFE41EB0E01CCF1FF
:100FA000200E03FA0EFE10EB0E0051F10001CCF101
:100FB000200E29D412FA0EF201EB0451BDE81040C4
:100FC00058BF7047401C1CBFB2F1004F704700284B
:100FD0000CBF491C20F00100704712EB020E43EBDE
:100FE000030218BF4FF0010E4EEA4202ACF1200C92
:100FF000DCF11E0E54D943FA0CFE10EB0E0051F139
:10100000FF31CCF11E0ED5D50EF1010E12FA0EFEF7
:10101000404141EB010101EB445C5FEA5C5C10D9AB
:1010200010EBDE7001EB045138BFBEF1004FBDE89C
:10103000104018BF704700280CBF491C20F0010069
:10104000704730D24FEAD42C11F5001124F400641B
:101050001BD0B1FA81F20B3AA41AA41ED2F12003DC
:10106000914030FA03F31943904001EBCC71002C0E
:1010700001EB0451BDE81040A8BF704701F1C04129
:101080004FF0000001F000417047B0FA80F310FA11
:1010900003F100D110BDE41A173C4805C90AE4E782
:1010A00001EB045110BD491001EB0451BDE81040A3
:1010B0004FEA300002E04FF0000170474A0008BFDD
:1010C0000042F8D0B2F5001F28BF704701F0004180
:1010D0004FF0000070479EEA445F07D011EA5E0FB0
:1010E000BDE8104004BF002100207047BDE810405B
:1010F00070B5FFF7BFFE00BF40DFF63E83F0004152
:10110000104670470000E0FF43004FEAD30C4FEA5F
:101110003C0C43401FBF40070CF1605113F0FE4FE1
:1011200070471CF0006F03D100200CF000417047A5
:101130000CF0004343EA507010B540EACC0000F0D8
:10114000E8F900BF000000924FEA0001FFF7E0BE9F
:101150004FF000414FF00000A1F500217047000062
:1011600090EA010F48BF81F0004100F12482421A49
:101170003CBF801A89184FEAD0524FF07F4C1CEACE
:10118000410FA2EBD15318BF9CEA026F00F03B80E5
:101190004FF0004C4CEA00204CEA012121FA03FCFC
:1011A00010EB0C0C1ED202F1FF325FEA1C2040EB68
:1011B000C25038BF70471CF07F0F4FEA400C18BF79
:1011C000BCF17F4F38BF7047C3F12003994008BF7F
:1011D00020F00100BCF17F4F38BF7047A0F1C04044
:1011E00000F0DDB94FEA3C00000A40EBC25028BFD6
:1011F0001CF0FF0F4FEA400CE6D018BFBCF17F4F48
:1012000038BF7047EAE79CEA026F05D010EA5C0F2E
:1012100008BF00F00040704710B500F07AF900BF39
:1012200064FBBE3E4FF47F0C1CEAD0121EBF1CEACA
:10123000D11392EA0C0F93EA0C0F00F0858090EA2C
:10124000010F48BF42F4807240F4000C41F40000EA
:101250002CF07F4120F07F4000B58142A2EB0302D9
:101260000FF2081CACEB504EC0F100009EF800E0FD
:101270004FEA4E0E00FB0EFC38BF49004FEA2C1C13
:1012800002F5FA020CFB0EF34FEACE1E4FEA112CC8
:101290004FEAC1210EEB635E42EB22420EFB0CFCD7
:1012A0004FEA1C5300FB03114FEA112C4FEA0131A6
:1012B0000EFB0CFC4FEADC4C00FB0C11C14228BFBA
:1012C00009184CEB03335DF804EB10EB410143EBE1
:1012D000C250B2F57C0F38BF704729D512F0F00F1D
:1012E0001CBF00F1C04000F00040704700818283C5
:1012F0008485868788898B8C8D8E8F919293959625
:1013000097999A9C9D9FA0A2A3A5A7A8AAACAEB0AE
:10131000B2B3B5B7B9BCBEC0C2C5C7C9CCCED1D4B3
:10132000D7D9DCDFE2E6E9ECF0F3F7FAFE000000E3
:101330004FEA400C0CF1807CBCF17E4F28BF704717
:10134000B0F1C04000F02BB990EA010F0CEAD113C4
:1013500048BF42F48072624538BF634507D213F438
:101360007F0F16D080EA010000F00040704710B5F2
:1013700000F0CFF8097EFC3E00F005B880EA0100DD
:1013800000F00040704780EA010000F0004000F0EB
:1013900006B912F47F0F04BF0248704780EA0100CB
:1013A00000F0FDB80000C07FC10DD1F19E0206DB48
:1013B0004FEA002343F0004323FA02F07047004253
:1013C00007D54FEA4001B1F1FE4F02D24FF00000C5
:1013D000704710B500F09DF84992248000207047B6
:1013E0006FEA200070470000B0FA80F310FA03F2B1
:1013F000C3F19D030AD0D90501EB1220530638BF73
:10140000704700F1010008BF20F0010070470000A4
:101410004FF47F0C1CEAD0121EBF1CEAD11392EAD3
:101420000C0F93EA0C0F00F0478090EA010F48BFC1
:1014300042F480724FF0004C4CEA00204CEA01214B
:1014400002EB0302A0FB0113A2F50002002918BF62
:1014500043F001035B0028BF4FEA330342EB224213
:101460005FEA132C4CEBC2502EBFBCEB436FB2F5BE
:101470007C0F70474FEA036CBCF1004F08BF20F0AF
:101480000100B2F57C0F38BF70470BD582F0FF0228
:1014900012F5803FC8BF704700F1C040D8BF00F0D0
:1014A0000040704700F5000C5FEA4C0C48BF7047E5
:1014B000B0F1C04000F073B890EA010F0CEAD1130C
:1014C00048BF42F48072624538BF634504D280EA67
:1014D000010000F00040704710B500F01AF800BF9E
:1014E0008900013E00F007B800F009B85FEA410C3E
:1014F0005FEA1C6C08D080EA010000F050B85FEA97
:10150000400C5FEA1C6CF6D14FF00040A0F5800063
:1015100070470EF1020E2EF0030E5EF8044B2442CB
:1015200004D44FEA4102B2F17F4F11D84FEA400391
:10153000B3F17F4F0CD80ED14FEAD07CB2F17F4F80
:101540000CEB4C0C0CF1020C08BF4CEBD17C04E012
:101550004FF0080C01E04FEAD17C0CEB4C0324FA6D
:1015600003F404F00704B4F1040C06D20EEB840C6F
:10157000BDE810404CF0010C6047DFE80CF00708B4
:1015800002024FF00040A0F5800010BD0846420066
:1015900018BFD2F1807288BF00F0004010BDFF215B
:1015A00041EAD050C005704790EA010F48BF81F072
:1015B00000413FF5DCAD421A04D882F00042A0EBB6
:1015C000020011444FEAD0524FF07F4C1CEA410F09
:1015D000A2EBD15318BF9CEA026F4AD04FF0004CE7
:1015E0004CEA00204CEA012121FA03FCB0EB0C0C80
:1015F0000FD412F0FE0F36D05FEA4C001DD500125A
:1016000040EBC25038BF70471CF03F0F18BF704707
:101610000BE0A2F101025FEA1C2040EBC25038BF90
:1016200070471CF07F0F18BF7047C3F1200399402B
:1016300014BF401E20F00100704780084FEA1223BB
:1016400008BF7047B0FA80FCA2EB0C02CCF1280C6A
:1016500060FA0CF093EA122F04BF00EBC2507047FF
:101660004FEAC3707047130A5FEADC1008BF704787
:10167000F6E79CEA026F04D010EA5C0F08BF002076
:10168000704710B5FFF745FF40DFF63E81F00040A0
:1016900070470000B4160008000000202C00000075
:1016A00028010008E01600082C0000207C0600003D
:1016B0004401000800000000CDCC4C3D0AD7233C7B
:1016C000CDCCCC3D00000000000000000000000078
:1016D000000000000000000000000000000000000A
:04000005080000ED02
:00000001FF
